S01200006F75747075742E6865782E73726563EE
S1134000B240805A20013F4074403E4000113D4080
S113401000110D9E0524FE4F00001E530E9DFB2B28
S11340203F4000113D4000110D9F0524CF43000087
S11340301F530F9DFB2B3040404030403E40001347
S113404031400039F2433200F24070003100F2E0B6
S113405010003100B0125E40FA3F304070402183BE
S1134060814300002F4191530000FC3F2153304114
S107407002DFFE3F2A
S113FFE03A403A403A403A403A403A403A403A403D
S113FFF03A403A403A403A403A403A403A40004067
S9034000BC
